:06000000020434C292224A
:10000B000205BA4100960041009500C105C10600EA
:1000230002056EC0E0C083C082C0D075D000C00797
:1000330075910030F813AF16051674022FF582E49C
:100043003400F583E59AF0C2F830F902C2F9E516F7
:10005300B40105C202750A5AE516B4400AD2047502
:100063000A00C202751600D007D0D0D082D083D048
:02007300E03279
:10007B00020594E88FF0A4CC8BF0A42CFCE98EF055
:10008B00A42CFC8AF0EDA42CFCEA8EF0A4CDA8F0F5
:10009B008BF0A42DCC3825F0FDE98FF0A42CCD35B9
:1000AB00F0FCEB8EF0A4FEA9F0EB8FF0A4CFC5F023
:1000BB002ECD39FEE43CFCEAA42DCE35F0FDE43C1C
:1000CB00FC2275F008758200EF2FFFEE33FECD3367
:1000DB00CDCC33CCC58233C5829BED9AEC99E582AE
:1000EB0098400CF582EE9BFEED9AFDEC99FC0FD53A
:1000FB00F0D6E4CEFBE4CDFAE4CCF9A88222B8002A
:10010B00C1B90059BA002DEC8BF084CFCECDFCE5F4
:10011B00F0CBF97818EF2FFFEE33FEED33FDEC3318
:10012B00FCEB33FB10D703994004EB99FB0FD8E59D
:10013B00E4F9FA227818EF2FFFEE33FEED33FDECE6
:10014B0033FCC933C910D7059BE99A4007EC9BFCDC
:10015B00E99AF90FD8E0E4C9FAE4CCFB2275F01068
:10016B00EF2FFFEE33FEED33FDCC33CCC833C8108D
:10017B00D7079BEC9AE899400AED9BFDEC9AFCE8BB
:10018B0099F80FD5F0DAE4CDFBE4CCFAE4C8F92208
:10019B00E8600FECC313FCED13FDEE13FEEF13FF42
:1001AB00D8F122ECF0A3EDF0A3EEF0A3EFF022A830
:1001BB00828583F0D083D0821201D11201D112013A
:1001CB00D11201D1E473E493A3C583C5F0C583C8F1
:1001DB00C582C8F0A3C583C5F0C583C8C582C82234
:1001EB00D083D082F8E4937012740193700DA3A3A3
:1001FB0093F8740193F5828883E473740293B5F0DA
:10020B00067403936860E9A3A3A3A380D890008C22
:10021B001201AE900090E014605B146079240260D0
:10022B0003020328759850438920438780438E101F
:10023B00A2AF9200C2AF75C7AA75C755E4F591A2DC
:10024B000092AF53C4DF7B10FAF9F890008CE0FCFE
:10025B00A3E0FDA3E0FEA3E0FF120109900091E0F3
:10026B00F8A3E0F9A3E0FAA3E0FB120109EFF40411
:10027B00F58DD28E2275985043878053C4F8A2AF68
:10028B009200C2AF75C7AA75C755E4F591A200924B
:10029B00AF43C420800775F85075C480E47B10FA17
:1002AB00F9F890008CE0FCA3E0FDA3E0FEA3E0FFD7
:1002BB00120109900091E0F8A3E0F9A3E0FAA3E0A2
:1002CB00FB120109C3E49FFFE49EFE74019DFDE454
:1002DB009CFC780812019B8FC6E47B10FAF9F8900E
:1002EB00008CE0FCA3E0FDA3E0FEA3E0FF120109FC
:1002FB00900091E0F8A3E0F9A3E0FAA3E0FB120170
:10030B0009C3E49FFFE48FC5A2AF9200C2AF75C7CC
:10031B00AA75C755F591A20092AF43C40822A2AFAC
:10032B009200C2AF75C7AA75C755439F01A2009231
:10033B00AFE4F591EF24F9600C1460092402700806
:10034B0075A638800375A630E4F5A775AF04A2AF88
:10035B009200C2AF75C7AA75C75543A401A20092FC
:10036B00AF85AE1905A6A2AF9200C2AF75C7AA752D
:10037B00C75543A401A20092AF85AE1AEF24F860D3
:10038B000302040EE51925E0FFE51A54012FFF5473
:10039B00C0F51CEF543FF51B74F22FFF75AF0C75B6
:1003AB00A601E4F5A7A2AF9200C2AFA2AF9200C222
:1003BB00AF75C7AA75C75543AA40A20092AF75C7C0
:1003CB00AA75C75543A401A20092AFE5AE644B607A
:1003DB000BE5AE64526005E5AEB45322E51BC39446
:1003EB000F5017E51C6440600BE51C64806005E54D
:1003FB001CB4C00A74F22FFF800474FC2FFFEFC3F0
:10040B0013F51975C7AA75C75585198475C7AA75CC
:10041B00C755851A85A2AF9200C2AF75C7AA75C71B
:10042B0055539FFEA20092AF22787FE4F6D8FD755C
:10043B00812002047B0204C0E493A3F8E493A3405D
:10044B0003F68001F208DFF48029E493A3F8540744
:10045B00240CC8C333C4540F4420C8834004F4563F
:10046B00800146F6DFE4800B010204081020408077
:10047B0090000EE47E019360BCA3FF543F30E5096E
:10048B00541FFEE493A360010ECF54C025E060A877
:10049B0040B8E493A3FAE493A3F8E493A3C8C5820A
:1004AB00C8CAC583CAF0A3C8C582C8CAC583CADF78
:1004BB00E9DEE780BE7F071203291205FA1205DE7B
:1004CB009000967401F0120526900096E06401707E
:1004DB0045900095F0FF120614900095EFF0D2991D
:1004EB00D20524B9601A24F8601A24E8602024F895
:1004FB00602024FD6012242070CFD291D29280C94B
:10050B00D29080C5D28180C1C291C29280BBC29071
:10051B0080B7C28180B312000380AEA2AF9200C23B
:10052B00AF75C7AA75C755E4F591A20092AF53B149
:10053B00BF53B2BFA2AF9200C2AF75C7AA75C75562
:10054B00F591A20092AF43B18053B27F900090F02F
:10055B00A31201BA000025807F007E247DF47C006D
:10056B00020218C0E0C083C082C09130980AD20644
:10057B00900097E599F0C298309905200502C29931
:10058B00D091D082D083D0E032C0E0C083C082C093
:10059B009130F80A900098E59AF0D207C2F830F93A
:1005AB0005200502C2F9D091D082D083D0E032C0B1
:1005BB00E0E50945086010E509150970021508E525
:1005CB000945087002D201E50A6005D50A02D2027C
:1005DB00D0E032A2AF9200C2AF75C7AA75C755E47F
:1005EB00F591A20092AF53B3FB53B4FB020003A2ED
:1005FB00AF9200C2AF75C7AA75C755E4F591A200BB
:10060B0092AF53B3FB53B4FB22EF14600C04701086
:10061B003098FDAE99C298800730F8FDAE9AC2F8BB
:03062B00AF0622F5
:00000001FF
